:100000000C94D4050C94F1050C94F1050C94F105B5
:100010000C94F1050C94F1050C94F1050C94F10588
:100020000C94F1050C94F1050C948F160C94641546
:100030000C948D2D0C94F1050C94F1050C94F105A4
:100040000C94F1050C94F1050C94F1050C94F10558
:100050000C94F1050C94EF2C0C94F1050C94F10523
:100060000C94F1050C94F1050C94F1050C94F10538
:100070000C94F1050C94F1050C94F1050C94F10528
:100080000C94F1050C94F1050C94F1050C94F10518
:100090000C94F1050C94F1050C94F1050C94F10508
:1000A0000C94F1050C94F1050C94F105CB09CD09E4
:1000B000D809CF09D109D309D509D709DA09DC094B
:1000C000DE09E909E009E209E409E609E809EB09C2
:1000D000AB0AAB0AE90AE90A250B450B170D700DAF
:1000E000870B700D740C740C810C810C810C810CCD
:1000F000810C810C810C810C810C810C810C810C98
:10010000810C810C810C810C920CBA0CBF0CC60CBA
:10011000DE0CA60EA90EAC0EAF0EB20EB50EB80ECA
:10012000D113ED131B145A14A314A614A914AC1460
:10013000AF14B214B514B814BB14BE14C314C6144F
:10014000C914CE14D314D614D9140B210B211E219B
:100150001E2114211E211E211E210B210B211921DC
:100160001E211E21192157215C2166215A215F2160
:1001700064216221E8280F29AF2A0F29AF2A5729C5
:100180007A29AF2A782A8B2A35002B002A00D75CDF
:10019000145000001E00140004001D613400E30030
:1001A0001F001A0016001B00E2004C00200008008F
:1001B0000700060050002C0021001500090019005E
:1001C0004F002B01220017000A0005000000025119
:1001D0001601040100001D0100001B014601190168
:1001E000000006010000180123001C000B00110094
:1001F00000000251240018000D00100052002B14C2
:1002000025000C000E0036005100280026001200C8
:100210000F0037002F00290027001300330038712A
:1002200030002E002A002D003100D85C1150000053
:100230000100010001000100105000000100140045
:1002400004001D610100010001001A0015001B00DF
:100250000100010001000900160006000100010074
:1002600001001300170019000100010001000A003D
:10027000070005000000010001000100000001006E
:100280000000010001000100000001000000010069
:1002900023000D000B000E000000010024000F00E1
:1002A00011001000010001002500180008000100E5
:1002B0000100010026001C000C00010001000100EB
:1002C00027003300120001000100010001000100BD
:1002D000010001001250000029000100010001008E
:1002E000115000003A004B004E00FD00FF000100DD
:1002F0003B004A00F200FB00F50001003C00F0006A
:10030000F100F900FA0001003D004D00F300FC008F
:10031000F40001003E0049004800F6000000010022
:100320004400010000000100000001004500010040
:10033000000001000000F4003F0001000100010086
:10034000000001004000240021001E0021020100E5
:100350004100250022001F0063000100420026002A
:1003600023002000620001004300550057000100F7
:100370002E000100010001000100010013500000E7
:100380000100010001000100125000000100010005
:100390000100010001000100010001000100010055
:1003A0000100010001000100010001000100010045
:1003B0000100010001000100010001000100010035
:1003C0000100010000000100010001000000000F19
:1003D0000000010001000100000000070000010012
:1003E00001000100010001000000010001004A00BD
:1003F00050004B00010001000100520051000100BB
:100400000100010001004D004F004E0001000100FD
:1004100001000100010001000100010001000100D4
:100420000100010014500000010001000100010062
:100430001350000001000100010001000100A800AC
:1004400001000100010001000100C95C0100010080
:10045000010001000100CA5C01000100010001006F
:100460000100AA0001000100010001000000C35CBE
:1004700001000100000001000000A90001000100CE
:10048000000001000000C25C010001000100010049
:100490000000F45C01000100010001000100AE0059
:1004A00001000100010001000100C55C0100010024
:1004B000010001000100C65C010001000100010013
:1004C0000100AD000100010001000100105000001A
:1004D000000000000000000000000000000000001C
:1004E000000000000000000000000000000000000C
:1004F00000000000000000000000000000000000FC
:1005000000000000000000000000000000000000EB
:1005100000000000000000000000000000000000DB
:1005200000000000000000000000000000000000CB
:1005300000000000000000000000000000000000BB
:1005400000000000000000000000000000000000AB
:10055000000000000000000000000000000000009B
:10056000000000000000000000000000000000008B
:100570000001010101010100010101010000000071
:100580000000000000000000000001000100010167
:10059000010101010101010101010101010101014B
:1005A000010101010101010101010100000001013E
:1005B000000000000000000000000000000000003B
:1005C0000000000000000000000000010101010027
:1005D00000000000000000002A2B2800000000009E
:1005E00000000000000000000000002900000000E2
:1005F0002C1E3420212224342627252E362D373850
:10060000271E1F202122232425263333362E373858
:100610001F0405060708090A0B0C0D0E0F10111216
:10062000131415161718191A1B1C1D2F3130232DE2
:10063000350405060708090A0B0C0D0E0F101112E0
:10064000131415161718191A1B1C1D2F3130354C91
:100650001DFFFF1DFFFF1DFFFF1DFFFF1DFFFF1DF6
:10066000FFFF1DFFFF1DFFFF1DFFFF1DFFFF1DFF04
:10067000FF1DFFFF1DFFFF1DFFFF1DFFFF1DFFFFF4
:100680001DFFFF1DFFFF1DFFFF1DFFFF1DFFFF1DC6
:10069000FFFF1DFFFF1DFFFF1DFFFF1DFFFF1DFFD4
:1006A000FF1DFFFF1DFFFF1DFFFF1DFFFF1DFFFFC4
:1006B0001DFFFF1DFFFF1DFFFF1DFFFF1DFFFF1D96
:1006C000FFFF1DFFFF1DFFFF1DFFFF1DFFFF1DFFA4
:1006D000FF1DFFFF1DFFFF1DFFFF1DFFFF1DFFFF94
:1006E0006EFFFF6EFFFF6EFFFF6EFFFF6EFFFF6E80
:1006F000FFFF6EFFFF6EFFFF6EFFFF6EFFFF6EFFDF
:10070000FF6EFFFF6EFFFF6EFFFF6EFFFF6EFFFFCE
:100710006EFFFF6EFFFF6EFFFF6EFFFF6EFFFF6E4F
:10072000FFFF6EFFFF6EFFFF6EFFFF6EFFFF6EFFAE
:10073000FF6EFFFF6EFFFF6EFFFF6EFFFF6EFFFF9E
:100740006EFFFF6EFFFF6EFFFF6EFFFF6EFFFF6E1F
:10075000FFFF6EFFFF6EFFFF6EFFFF6EFFFF6EFF7E
:10076000FF6EFFFF6EFFFF6EFFFF6EFFFF6EFFFF6E
:100770001DFFFF1DFFFF1DFFFF1DFFFF1DFFFF00F2
:100780000000FDE4FFFDE4FFFDE4FF99FDBA000079
:1007900000FDE4FFFDE4FFFDE4FF99FDBA00000069
:1007A000FDE4FFFDE4FFFDE4FF99FDBA99FDBA9970
:1007B000FDBAFDE4FF99FDBA1DFFFF1DFFFF1DFF00
:1007C000FF1DFFFF1DFFFF3299F4B976DC6EFFFFBE
:1007D000B976DC0FA6C33299F46EFFFF6EFFFF6E91
:1007E000FFFF0FA6C36EFFFFFDE4FFFDE4FFFDE486
:1007F000FF92E0FF6EFFFFFDE4FF6EFFFF92E0FF60
:100800006EFFFF6EFFFF6EFFFF6EFFFF6EFFFF6E5E
:10081000FFFF99FDBA99FDBA99FDBA6EFFFF6EFF11
:10082000FF99FDBA99FDBA99FDBA6EFFFF6EFFFF01
:1008300099FDBA6EFFFF99FDBA6EFFFF6EFFFF6E66
:10084000FFFF6EFFFF6EFFFF6EFFFF6EFFFF6EFF8D
:10085000FF6EFFFF6EFFFF6EFFFF6EFFFF6EFFFF7D
:100860006EFFFF6EFFFF6EFFFF6EFFFF6EFFFF6EFE
:10087000FFFF6EFFFF6EFFFF6EFFFF6EFFFF6EFF5D
:10088000FF6EFFFF6EFFFF6EFFFF6EFFFF6EFFFF4D
:1008900081FFFF81FFFF81FFFF81FFFF81FFFF815C
:1008A000FFFF81FFFF81FFFF81FFFF81FFFF81FFCE
:1008B000FF81FFFF81FFFF81FFFF81FFFF81FFFFBE
:1008C00081FFFF81FFFF81FFFF81FFFF81FFFF812C
:1008D000FFFF81FFFF81FFFF81FFFF81FFFF81FF9E
:1008E000FF81FFFF81FFFF81FFFF81FFFF81FFFF8E
:1008F00081FFFF81FFFF81FFFF81FFFF81FFFF81FC
:10090000FFFF81FFFF81FFFF81FFFF81FFFF81FF6D
:10091000FF81FFFF81FFFF81FFFF81FFFF81FFFF5D
:1009200000000000000000000000010101010101C1
:100930000101010202020202020202030303030395
:10094000030304040404040505050505060606065C
:100950000607070707080808080909090A0A0A0B11
:100960000B0B0C0C0C0D0D0D0E0E0E0F0F101010AE
:10097000111112121313141415151616171718182F
:1009800019191A1A1B1C1C1D1D1E1F1F2021212294
:10099000232324252526272828292A2B2C2C2D2ED5
:1009A0002F30313132333435363738393A3B3C3DEC
:1009B0003E3F404142434445464748494B4C4D4EDB
:1009C0004F50525354555758595A5C5D5E6061639D
:1009D000646567686A6B6C6E6F7172747677797A2A
:1009E0007C7D7F8182848687898B8D8E9092949581
:1009F00097999B9D9FA1A2A4A6A8AAACAEB0B2B4A1
:100A0000B6B9BBBDBFC1C3C5C8CACCCED0D3D5D77C
:100A1000DADCDEE1E3E6E8EAEDEFF2F4F7F9FCFF19
:100A200005010902A10185020901A10005091901B9
:100A300029051500250195057501810295017503AC
:100A400081010501093009311581257F950275085D
:100A5000810609381581257F950175088106050CE9
:100A60000A38021581257F950175088106C0C005E9
:100A7000010980A10185031601002603001A8100E7
:100A80002A8300751095018100C0050C0901A101A0
:100A90008504160100269C021A01002A9C0275108A
:100AA00095018100C005010906A101850505071909
:100AB000E029E7150025019508750181020508194F
:100AC00001290595057501910295017503910105AF
:100AD00007190029EF1500250195F075018102C065
:100AE00005010906A101050719E029E715002501FF
:100AF00095087501810295017508810105081901A4
:100B00002905950575019102950175039101050768
:100B1000190029FF150026FF00950675088100C001
:100B200009023B00020100A0FA09040000010301D0
:100B3000010009211101000122400007058103087D
:100B4000000A09040100010300000009211101004D
:100B50000122C0000705820320000A1201100100D3
:100B6000000008EDFE071301000102030104033039
:100B700000000016034500720067006F0044006F1C
:100B8000007800200045005A00000016034500725E
:100B90000067006F0044006F007800200045005A95
:100BA000000000040309040011241FBECFEFDAE0A7
:100BB000DEBFCDBF13E0A0E0B1E0E6E5F9E602C09C
:100BC00005900D92A637B107D9F726E0A6E7B3E066
:100BD00001C01D92AA31B207E1F70E94D9170C9407
:100BE000A9340C9400008F929F92AF92BF92CF9243
:100BF000DF92EF92FF920F931F93CF93DF93CDB7C6
:100C0000DEB760970FB6F894DEBF0FBECDBFFC0114
:100C1000F080118183819481892B09F486C71F3F5D
:100C200021F40FEFF01609F480C76F0185E0DE01B3
:100C3000199601900D928A95E1F7F6012281898536
:100C40009A85222349F00E94192F082F682F898541
:100C50009A850E94922F03C00E94652F082F26E0DC
:100C6000129FF001112434E5039FE00DF11D1124C2
:100C7000EF0DF11DEE0FFF1FE857FE4F0591149188
:100C8000F6018281043FFCE51F0791F028F4023C45
:100C90003CE5130789F032C0053F9CE5190721F1B7
:100CA000063FECE51E0751F5882309F43EC772C0E4
:100CB000882309F43AC778C0882309F436C780919D
:100CC000AC05882319F01092AC0503C08FEF809318
:100CD000AC056091A9057091AA058091AB05909132
:100CE000AC050E94511F21C7882309F41EC79091AB
:100CF000760381E089278093760317C7882381F0E4
:100D0000033EFCE51F0709F47FC008F072C0013EF6
:100D10003CE5130709F066C010928A030E94D220B6
:100D200017FD78C0F6018281882309F4A4C1073138
:100D3000FCE51F0709F0DCC08091070190910801D4
:100D40000596909308018093070110927C03F601A9
:100D500092810A3CFCE51F0709F47CC208F48EC1AD
:100D6000013D2CE5120709F4B3C2B8F0053DECE5EE
:100D70001E0709F4DCC208F4C5C10D3D8CE5180757
:100D800009F4E0C20E3DECE51E0709F0C3C199234A
:100D900009F4CBC60E94242EC8C60D3C8CE518076A
:100DA00029F4992309F4C1C681E019C00E3CECE591
:100DB0001E0708F49DC10F3C3CE5130709F46CC203
:100DC00008F078C2992309F4B0C68091A9058695E8
:100DD0008695825C8F73833008F409C282E00E949A
:100DE000571FA3C6023E8CE5180709F099CF81E092
:100DF0000EC0043E9CE5190749F0053EECE51E07D0
:100E000009F08ECF84E003C082E001C083E08093CC
:100E10008A0384CFF6018281882309F483CF8091ED
:100E20005E058093770310925E0580918A0381307E
:100E300071F048F08230A1F08430C1F486EE0E9457
:100E4000582588E111C082EE0E943E240FC088E13F
:100E500093E00E94881188E193E00E94721106C01D
:100E600082EE0E943E2487E50E9458258FE39CE98C
:100E70000197F1F700C000007801E894F7F85CE012
:100E8000A52EB12CC7010A2C02C0969587950A940D
:100E9000E2F7282F2F7041F0822F90E02A3010F4D3
:100EA0004D9604C0069702C087E290E00E94582544
:100EB00094E0A91AB108ECEFAE16EFEFBE0611F7F9
:100EC00080918A03813039F040F0823031F08430F3
:100ED00051F488E206C08CE204C082EE0E94D7235F
:100EE00002C00E9458258091770380935E051ACF37
:100EF00008312CE5120770F40E31110508F4BBC05F
:100F00000832110508F49EC0C8018D970C9708F4AB
:100F100099C0B1C00A313CE5130709F486C018F541
:100F200008319CE5190751F10931ECE51E0709F07C
:100F3000A2C0809108018F93809107018F938CE16B
:100F400091E09F938F931F9288E08F93CE0101963B
:100F50007C019F938F930E94C4310FB6F894DEBF3B
:100F60000FBECDBF1BC00B31FCE51F0709F461C0EC
:100F70000C312CE5120709F460C07DC08091070197
:100F8000909108010597DDCE2230C1F4F7018181EF
:100F90000E943E247501FFEFEF1AFF0AF70120813E
:100FA000222309F4D2CEC70101965C01213061F7FA
:100FB000F1808F2D0E943E248F2D04C0233029F410
:100FC000F70181810E94D723E5CF30E0F901E0539A
:100FD000FA4F9490F901E05BFA4FE491BB24B3948B
:100FE000E11101C0B12CF901E053FB4F2491AA2477
:100FF000A394211101C0A12CBB2019F081EE0E9405
:101000003E24AA2019F086EE0E943E24892D0E94DB
:101010005825AA2019F086EE0E94D723BB2009F498
:10102000BACF81EE0E94D723B6CF809106018111FD
:1010300004C081E08093060188CE109206010E94D0
:101040001F1F83CE0E941F1F80910601882309F471
:10105000F9C180915E058111F5C10E946B2D9093BD
:101060007B0380937A03109379030093780382E0E3
:101070000E94E72F5AC50E941F1FE4C1033C3CE5B4
:10108000130709F4A3C0E0F40531ECE51E0770F482
:101090000230FCE51F0708F05CC101152CE51207C2
:1010A000F1F101301C4509F47CC00CC206318CE51D
:1010B000180709F4A4C1023C1C4509F47BC002C214
:1010C000063CFCE51F0709F49CC050F4043C3CE5D9
:1010D000130709F485C0053C1C4509F48BC0F2C117
:1010E000083CECE51E0709F49FC008F493C0A8C0B3
:1010F0000B3CFCE51F0709F4B9C00C3C1C4509F486
:10110000BFC0E0C1033D2CE5120709F4FDC008F49F
:10111000EDC0FFC00C3D1C4509F0D4C10DC19923A1
:1011200009F403C510925E050E94AF230FEF14E38C
:101130002CE0015010402040E1F700C00000F8947E
:1011400081E08093E00080E28093D8001092C90093
:101150008FE19EE40197F1F700C000001DBA1092E4
:1011600068001CBC10BE1FBA10927A0010926E006C
:1011700010926F0010927100109272001092C900CC
:101180001092BC0014B817B81AB81DB810BA109253
:10119000BC0015B818B81BB81EB811BA0C94003FA3
:1011A000C4C4992309F4C1C48091B90381608093B8
:1011B000B903BBC4992309F4B8C49091A90581E08F
:1011C00089278093A90510920B0183CD992309F4F7
:1011D000ACC480915E05827251F00E94671FA5C465
:1011E000992309F4A2C480915E058272B1F30E9432
:1011F000851F9BC4992309F498C48091AA05885F30
:1012000006C0992309F491C48091AA05885080935F
:10121000AA055FCD992309F488C42091AB0530E17C
:10122000230F08F42FEF09C0992309F47EC42091FD
:10123000AB0530E1231B08F420E02093AB0549CD3A
:10124000992309F472C42091AC0530E1230F08F40E
:101250002FEF09C0992309F468C42091AC0530E14F
:10126000231B08F420E02093AC0533CD992309F427
:101270005CC42091AD0530E1230F08F42FEF09C0C5
:10128000992309F452C42091AD0530E1231B08F4E1
:1012900020E02093AD051DCD992309F446C480912B
:1012A000A90586958695865C8F73823008F49FCF5A
:1012B00086E095CD992309F438C48091A9058695D7
:1012C0008695895C8F73853008F491CF89E087CD4E
:1012D000992309F42AC48091A905869586958F5C87
:1012E0008F73853008F483CF8FE079CD992309F48B
:1012F0001CC48091A90586958695855D8F73823083
:1013000008F475CF85E16BCD992309F40EC488E10B
:1013100066CD992309F409C48091A905869586951F
:10132000895D8F73893008F462CF89E158CD9923A4
:1013300009F4FBC383E253CD992309F4F6C3109259
:10134000C803F3C3992309F4F0C382E08093C80370
:10135000ECC3992309F4B6C00E94192E811102C072
:101360000E94242E84E090E00E94213090E090932F
:101370009D0380939C03F801E350FC45E231F105A5
:1013800030F4EA5AFF4F80919C030C949130809185
:101390009C03816027C0826025C0846023C0806177
:1013A00021C080621FC080641DC080681BC0846033
:1013B000886018C08E7F16C08D7F14C08B7F12C0CE
:1013C0008F7E10C08F7D0EC08F7B0CC08F770AC0C0
:1013D0008B7F877F07C087FB222720F991E0922728
:1013E00090FB87F980939C0360919C0384E090E0DC
:1013F0000E94353010925E050E94AF2396C3809103
:101400005E05992389F0982F9A7A81E009F480E0AB
:1014100080937D03811102C069E201C065E38EEA19
:1014200095E00E94E12D0BC080917D03811102C0E7
:1014300069E201C065E38EEA95E00E94B62D0E9444
:10144000D32E73C3003FFCE51F0739F426E240EEBC
:1014500060EEC6010E94B21E68C3013F2CE5120770
:10146000C0F4083D3CE5130721F427E245EE65EEA4
:10147000F0CF093D8CE5180719F428E241E0F7CFD9
:10148000073D9CE5190709F060CC26E241EE61EECC
:10149000E0CF023FECE51E0721F426E242EE62EEC9
:1014A000D8CF023FFCE51F0720F427E244EE64EEAC
:1014B000D0CF033F2CE5120709F047CC27E246EED8
:1014C00066EEC7CFF60100811181992349F0C8016A
:1014D0000E94192FF82E682FC8010E94922F04C075
:1014E000C8010E94652FF82EB8018F2D0E94150F9C
:1014F000182F382FF601258122952F7002810111B6
:1015000010920B06809109068770A9F0002399F0CC
:1015100080E2810F883078F082E02F87388B9E87B9
:101520000E94E72F809109068770EE24E3942F85AF
:1015300038899E858111E12CA92EA2944FE0A42226
:10154000B12CFCE0AF16B10408F0CAC2F501E859AD
:10155000FF4F0C949130892F807F9F70F92E882344
:1015600019F0F29480EFF8220023B9F0FF2009F47B
:1015700048C280E2810F883010F0311106C090918E
:101580005E05F92AF0925E0505C090910B06F92AD6
:10159000F0920B060E94D32E34C2812F388B0E940A
:1015A000D7233889FF2009F49BC2105EF0941830CD
:1015B00010F0311106C090915E05F922F0925E059F
:1015C00005C090910B06F922F0920B060E94D32ED3
:1015D00087C2492F407F892F8F70403211F082954A
:1015E000807F332319F03130E9F025C0002381F0EA
:1015F00030910C06222351F0213041F4982F932B87
:10160000391709F46DC290930C066AC2832B81C10D
:10161000222319F0213009F463C28E870E94CD2E57
:101620008E857DC1002321F0223008F059C271C19E
:10163000211156C274C1002321F0222309F469C18B
:10164000E0C1222309F46BC1EEC1292F269526950E
:10165000237030E02115310521F02130310559F09A
:101660003FC2002319F0812F937002C080E090E008
:101670000E94901E43C2002319F0812F937002C074
:1016800080E090E00E947A1E39C20023F9F0153FF5
:1016900051F0163F71F0143FA9F480917E039091B0
:1016A0007F0381600BC080917E0390917F038260F5
:1016B00005C080917E0390917F03846090937F03A7
:1016C00080937E03812F0E94872C1EC0153F51F00E
:1016D000163F71F0143FA9F480917E0390917F032F
:1016E0008E7F0BC080917E0390917F038D7F05C01C
:1016F00080917E0390917F038B7F90937F038093F3
:101700007E03812F0E94BD2B0E94772DF7C1892F68
:10171000837009F071C00111EFC1812F8295869508
:101720008770880F880F412F4F7050E060E070E0A5
:101730004A015B01082E04C0880C991CAA1CBB1C22
:101740000A94D2F714FF12C00FE010E020E030E05E
:1017500004C0000F111F221F331F8A95D2F7B90151
:10176000A801409550956095709503C040E050E009
:10177000BA01969596959370892F90E082309105E5
:10178000E9F08330910579F100910D0610910E0674
:1017900020910F0630911006019759F048295929D8
:1017A0006A297B29CB01BA01602371238223932309
:1017B00020C0802A912AA22AB32A15C04829592973
:1017C0006A297B2980910D0690910E06A0910F0643
:1017D000B09110068A019B01082719272A273B2769
:1017E000C901B80106C0CB01BA01682979298A2943
:1017F0009B290E94762180C1002319F0892F8170D6
:1018000001C08695882309F477C1812F829586953A
:101810008770880F880F412F4F7050E060E070E0B4
:101820004A015B01082E04C0880C991CAA1CBB1C31
:101830000A94D2F714FF12C00FE010E020E030E06D
:1018400004C0000F111F221F331F8A95D2F7B90160
:10185000A801409550956095709503C040E050E018
:10186000BA01969596959370892F90E082309105F4
:10187000E9F08330910579F1009105061091060693
:101880002091070630910806019759F048295929F7
:101890006A297B29CB01BA01602371238223932318
:1018A00020C0802A912AA22AB32A15C04829592982
:1018B0006A297B298091050690910606A09107066A
:1018C000B09108068A019B01082719272A273B2780
:1018D000C901B80106C0CB01BA01682979298A2952
:1018E0009B290E943D2108C1412F50E0FA01E05E92
:1018F000F109E531F10508F07FC0EC58FF4F0C9479
:1019000091301F70892F8F71002331F00E940030B9
:10191000812F0E94CD23E4C00E94C22F812F0E94FC
:10192000C223DEC0002311F12111DAC0292F2F714B
:1019300081E090E0A0E0B0E0AC01BD0104C0440F44
:10194000551F661F771F2A95D2F780910506909143
:101950000606A0910706B09108068A019B01082798
:1019600019272A273B27C901B80125C0223008F0D2
:10197000B7C0DCCF002329F0892F8F712EC0002340
:10198000D9F3892F8F710E94C22FAAC0002381F042
:10199000292F2F7181E090E0A0E0B0E0BC01CD01E3
:1019A00004C0660F771F881F991F2A95D2F703C0BE
:1019B00060E070E0CB010E943D2192C0002381F0E5
:1019C000192F1F71812F0E94003028E0129FC00143
:1019D0001124836080930906812F0E94003080C00B
:1019E00081E02F870E94E72F2F85223008F478C0EE
:1019F00082E00E94E72F74C0002339F0222309F40B
:101A0000BBCF812F0E943E246BC0222309F4B9CFA3
:101A1000193349F43FEF83EC99E031508040904016
:101A2000E1F700C00000812F0E94D72359C0323F48
:101A3000B1F028F4303F49F0313FF9F028C0343F8D
:101A4000B9F058F0353F71F022C0002309F456C0B8
:101A50009091250581E0892708C081E0082700933F
:101A600025054CC001114AC081E08093250546C080
:101A7000011144C01092250541C0002329F0809136
:101A80002405882329F329C0222311F337C080912C
:101A900024052223C1F0882341F09091250581E09F
:101AA00089278093250510922405812F002319F0A2
:101AB0000E943E2423C00E94D72386E0F6011192A3
:101AC0008A95E9F71BC08823C9F0011117C09091CE
:101AD000250581E0892780932505109224050EC0F5
:101AE000F8E0AF16B10441F04CF01AE0A11AB108C9
:101AF00022E0A216B10410F40E94A61EEE20A9F066
:101B00008091090680FD11C0F601128285958595A8
:101B100085950E940030C6010E94F3058091090658
:101B20008595859585950E94C22F60960FB6F8948D
:101B3000DEBF0FBECDBFDF91CF911F910F91FF9000
:101B4000EF90DF90CF90BF90AF909F908F900895CF
:101B50000F931F93CF93DF939C013A9521153F413B
:101B600048F5EB018C0190FF03C080EEFB01099565
:101B700011FF03C081EEFE01099512FF03C082EE42
:101B8000FE01099513FF03C083EEFE0109950115BF
:101B9000104180F084EEFE01099585EEFE01099565
:101BA00086EEFE01099587EEFE01DF91CF911F9130
:101BB0000F910994DF91CF911F910F910895282FD4
:101BC000277081E090E001C0880F2A95EAF78095A0
:101BD00090910B06892380930B060C94D32E282F0B
:101BE000277081E090E001C0880F2A95EAF7809580
:101BF00090910B06892380930B060C94D32E282FEB
:101C0000277081E090E001C0880F2A95EAF7909153
:101C10000B06892B80930B060C94D32E282F27704C
:101C200081E090E001C0880F2A95EAF790910B06B9
:101C3000892B80930B060C94D32EAF92BF92CF9238
:101C4000DF92EF92FF920F931F93CF93DF9320E9E0
:101C5000289F7001299FF00C1124C0E0D0E000E023
:101C600010E067018FEFC81AD80A570182E0A80E6A
:101C7000B11CFE01EE0DFF1DE05BF94F6491F60112
:101C8000EC0FFD1FE05BF94F7491F501EC0FFD1FA8
:101C9000E05BF94F8491611107C0711105C081119A
:101CA00003C020E040E005C00E943920462F282FC5
:101CB000672FC8010E944F1F0F5F1F4F2396C03927
:101CC000D105B9F6DF91CF911F910F91FF90EF9061
:101CD000DF90CF90BF90AF900895CF93E82F8730DB
:101CE00058F580910C0190910D01892B09F042C0AB
:101CF000CE2F80E40E94922590930D0180930C01D9
:101D0000892BB1F482E10E946B2590930D018093A1
:101D10000C01892B69F481E090E001C0880FCA951D
:101D2000EAF780950E946B2590930D0180930C013A
:101D300084E98093BC001EC090E0FC013797E73037
:101D4000F105C0F4E757FF4F0C949130209A289882
:101D500011C0219A29980EC0229A2A980BC0239A62
:101D60002B9808C0529A5A9805C0539A5B9802C0A3
:101D70003E9A4698CF910895CF93DF93873008F02D
:101D800047C080910C0190910D01892B09F049C049
:101D900080E40E94922590930D0180930C01892B81
:101DA00011F080E031C083E10E946B2590930D011A
:101DB00080930C01892BA9F781E40E9492259093CE
:101DC0000D0180930C01892B61F784E88093BC009E
:101DD0000E946B2DEC019091BC0097FD0EC00E94FB
:101DE0006B2D8C1B9D0B84369105A8F38EEF9FEF16
:101DF00090930D0180930C01D4CF8091BB0080950E
:101E000010920D0110920C0194E99093BC000AC04D
:101E10009FB18FB1807F869586959370892B809531
:101E200001C080E0DF91CF910895CF93DF9326E04A
:101E3000729FF001112434E5839FE00DF11D112400
:101E4000E60FF11DEE0FFF1FE857FE4FC591D4912D
:101E5000CE01C238D10549F1B0F4C133D10509F43E
:101E600064C048F4C932D10509F458C0CA32D1055A
:101E700009F462C068C0C533D10509F448C0C9334C
:101E8000D10599F060C0C33ED10541F138F4C03EA0
:101E9000D10591F0C23ED105B1F055C0C63ED10585
:101EA00021F1C73ED10561F14EC020919C0320FD78
:101EB00014C221FD12C213C220919C0320FF0FC245
:101EC00089E390E00CC220919C0322FF08C280911C
:101ED0009C0384FDB4C183EE90E001C280919C0319
:101EE00082FFF5CF82EE90E0FAC120919C0323FFA0
:101EF000F6C180919C0384FDA2C187EE90E0EFC102
:101F000080919C0383FFF5CF86EE90E0E8C120919D
:101F10009C0325FFE4C189E290E0E1C120919C038C
:101F200025FFDDC185E390E0DAC120919C0326FF07
:101F3000D6C18AE290E0D3C120919C0326FFCFC195
:101F400081E390E0CCC1C11520E5D20708F047C07D
:101F5000C11530E4D30708F034C1C83ED10518F5E7
:101F6000C03ED10508F0BBC1C83AD10570F4C53AEE
:101F7000D10508F0B0C0C130D10509F4B0C108F4F2
:101F80005EC1249708F45BC1AAC1CF3BD10508F418
:101F9000ADC0C03CD10508F452C1FE01EE0FFF1FD9
:101FA000E056F84F02C1C11520E2D20760F4C11516
:101FB00031E0D30708F093C1C03FD10508F43FC119
:101FC000CE0190658CC1C11580E3D80708F0F0C040
:101FD000FE01FF70EE0FFF1FE05EF64FE6C0C11579
:101FE00095E5D90708F044C0C11524E5D20708F0EB
:101FF00000C1C11532E5D30710F5C11581E5D80739
:1020000008F0E3C02C2F237081E090E002C0880F1D
:10201000991F2A95E2F79C689E0174E036952795F2
:102020007A95E1F72370922BEC2FEF70E695E69509
:1020300030E2E39FF00111248E2B9F2B50C18C2F97
:1020400086958695AE0143705527C115D34508F096
:10205000C1C090E2899F9001112481E090E002C00C
:10206000880F991F4A95E2F7822B932B9C6837C102
:10207000C1152AE5D207A0F4C11539E5D30708F048
:10208000C6C0C11586E5D80708F4B8C0C11598E5E3
:10209000D90708F4D4C09C2F8827806F906A1FC18D
:1020A000C1152BE5D20708F4CAC0CE01C1153CE525
:1020B000D30708F4C1C090568115904208F0BFC004
:1020C0008D2F8F710E94D820FE01FF27F0628F7143
:1020D0009F01382BAFC0C53AD10509F4B3C0C63A49
:1020E000D10509F0B2C082E890E4F9C0C83AD10540
:1020F00009F4AEC0C93AD10509F4ADC0CA3AD10558
:1021000009F4ACC0CB3AD10509F4ABC0CC3AD10547
:1021100009F4AAC0CB3BD10509F4A9C0CC3BD10539
:1021200009F4A8C0CD3AD10509F4A7C0C03BD10538
:1021300009F4A6C0CE3AD10509F4A5C0CF3AD1051D
:1021400009F4A4C0C13BD10509F4A3C0C23BD10529
:1021500009F4A2C0C33BD10509F4A1C0C43BD10519
:1021600009F4A0C0C53BD10509F49FC0C63BD10509
:1021700009F49EC0C73BD10509F49DC0C83BD105F9
:1021800009F49CC0C93BD10509F49BC0CD3BD105E6
:1021900009F49AC0CE3BD10509F499C0CA3BD105D8
:1021A00009F498C080E094E49AC08591949197C016
:1021B0009E013327C901D3FF02C0986C90C0906C78
:1021C0008EC0CE019F70906A8AC09C2F8827816F35
:1021D000906A85C090E2899F9001112481E090E08F
:1021E00002C0880F991F4A95E2F7822B932B9A68B9
:1021F00076C09C2F8827846F906A71C08C2F0E94B4
:10220000D8208F7190E0982F8827906268C08C2F1B
:102210008F700E94D820FE0194E0F695E7959A957C
:10222000E1F7EF70F0E0FE2FEE27F06A8F70806E1E
:102230009F01282BC90153C09927906650C080E0A8
:1022400090E04DC081E890E44AC083E890E447C044
:1022500082EE94E444C089EE94E441C08AEE94E4B2
:102260003EC085EB94E43BC086EB94E438C083EB3E
:1022700094E435C084EB94E432C087EB94E42FC03F
:102280008CEC94E42CC08DEC94E429C083E895E4B4
:1022900026C08AE895E423C082E995E420C084E959
:1022A00095E41DC081E296E41AC083E296E417C06B
:1022B00084E296E414C085E296E411C086E296E4D6
:1022C0000EC087E296E40BC08FE694E408C080E776
:1022D00094E405C08AE296E402C080EE90E0DF91CB
:1022E000CF910895CF93DF93EC010E94D723CE01C5
:1022F000805E9109089710F0209719F46FED7DE04A
:1023000002C06FEE7DE0CE01DF91CF910C94A80D5D
:10231000CF93DF93EC01805E9109089710F020972E
:1023200019F46FEF7DE002C06EE07EE0CE010E9406
:10233000A80D8C2FDF91CF910C943E2480E290E089
:1023400090930D0180930C0180918703811111C03E
:102350001092B9008CE08093B80081E080938703ED
:102360002FEF83ED90E3215080409040E1F700C0D3
:10237000000080E40E94922590930D0180930C014F
:10238000892B09F040C080E00E946B2590930D01DD
:1023900080930C01892BB9F580E00E946B25909306
:1023A0000D0180930C01892B71F58FE30E946B2541
:1023B00090930D0180930C01892B29F584E980937A
:1023C000BC0080E40E94922590930D0180930C0143
:1023D000892BC9F48CE00E946B2590930D018093AA
:1023E0000C01892B81F480E00E946B2590930D01F4
:1023F00080930C01892B39F48FE30E946B25909315
:102400000D0180930C0184E98093BC0080910C0144
:10241000089556985E9825982D9826982E98279876
:102420002F988FEF90E0909389008093880090938D
:102430008B0080938A0090938D0080938C00259A66
:102440002D9A2FEF80E792E0215080409040E1F7F5
:1024500000C00000269A2E9A2FEF80E792E02150CC
:1024600080409040E1F700C00000279A2F9A2FEF9C
:1024700080E792E0215080409040E1F700C00000EA
:1024800025982D982FEF80E792E0215080409040D2
:10249000E1F700C0000026982E982FEF80E792E029
:1024A000215080409040E1F700C0000027982F980D
:1024B00056985E9825982D9826982E9827982F98AC
:1024C000089584B1807F84B985B1807F85B98AB150
:1024D000837F8AB98BB1837F8BB93E9846980895E4
:1024E00080B38C7080BB81B3836F81BB08957F9272
:1024F0008F929F92AF92BF92CF92DF92EF92FF9214
:102500000F931F93CF93DF931F92CDB7DEB78091C8
:102510000C0190910D01892B91F0809186038F5FC2
:102520008093860381110BC00E949E1190E09093CE
:102530000D0180930C01892B11F40E9409120EE801
:1025400013E065E9E62E63E0F62E6801912C712C0C
:1025500057E0A52EA90C892D0E946D0E8A2D0E9490
:102560006D0E892D0E94BC0ED6019C91981721F00A
:102570008C93BB24B39401C0B12C8A2D0E94BC0E55
:10258000F7019081981719F0808381E001C080E005
:10259000B82A7B280E9461129394FFEFCF1ADF0ABA
:1025A0002FEFE21AF20A37E09312D2CF0E946B2D7E
:1025B0006AEF70E00E9469309C01682F809181036E
:1025C0008823E9F110928103E0918803F091890357
:1025D000DF011E9690E07BEF4AEFE42EF12C808124
:1025E0008B3FA9F0482F50E0681728F06901C41A02
:1025F000D50AA60106C06701C41AD50AA601420F72
:10260000531F4F30510514F0708301C091E0319693
:10261000EA17FB0721F790938103711002C0911113
:1026200010C010928003E0908803F090890390918D
:102630008103E1EAF3E080E03EE03E0F32C071103A
:10264000F0CF809180038111ECCF60918203709173
:10265000830380918403909185030E94152D2FB7E9
:10266000F894C0901106D0901206E0901306F090F6
:1026700014062FBFC0928203D0928303E09284039A
:10268000F09285038090A5059090A605A090A705DF
:10269000B090A8052FEF82169206A206B206D9F4D2
:1026A0003BC0D8012D918D014081421749F0D701DF
:1026B0004C914B3F21F46C93208391E001C081E069
:1026C000BFEFEB1AFB0A31963E13EBCF90938103D9
:1026D00080938003BACFAB01BC01662777278A01BC
:1026E0009B010095109520953095081519052A0530
:1026F0003B0520F48FEF9FEFDC0106C0DB01CA0130
:10270000880D991DAA1DBB1D8093A5059093A60554
:10271000A093A705B093A8052091A905822F8370E7
:1027200021F0122F1695169501C010E080910B0133
:102730008130A1F038F0823009F452C1833009F4BD
:102740005AC16AC110921901C092A105D092A20586
:10275000E092A305F092A40581E04AC180910A01AC
:1027600018130EC0237030E08091090190E051E011
:1027700040E02817390709F450E0852F942F02C054
:1027800081E090E0282F217020931B01412F50E021
:102790004531510508F012C1FA01E057FF4F0C9482
:1027A000913020911901892B09F408C1220F922F31
:1027B000990F990FF22EF90E0AE00F0D013308F070
:1027C00000E3F01608F0BBC020E040E060E08F2D91
:1027D00090E00E944F1FF394F4CF80911901880F6D
:1027E000982F990F990FD82ED90E0AE00D0D0133AD
:1027F00008F000E36091AA057091AB058091AC05EB
:102800000E943920F62EE82ED01608F098C0ED2D43
:10281000F0E0DF01AB5BBC4F8C9190911A019823E3
:1028200041F02E2D4F2D672FCF0179830E944F1F2E
:102830007981D394E9CF80911901B82EBB0C8B2DEF
:10284000880F880FB80E0AE00B0D013308F000E383
:10285000D090AB05C090AC052091AD0530E4329F1F
:10286000312D1124B01608F06AC0EB2CF12CF701C1
:10287000EB5BFC4F808190911A019823C9F0F7011E
:10288000EE0FFF1FEA51FD4F908192959F7060916E
:10289000AA05399F600D11247D2D8C2D39830E944E
:1028A0003920462F282F672FC7010E944F1F3981DB
:1028B000B394D8CF80911901D82EDD0C8D2D880FBF
:1028C000880FD80E0AE00D0D013308F000E3609187
:1028D000AD056695669566958091A1059091A205D6
:1028E0000E942E20F090AC050E94B31F8058982FB4
:1028F00097FD9195990F292F3F2D239F212D11246D
:102900006091AA057091AB05822F0E943920F62EA6
:10291000E82ED016A0F4ED2DF0E0DF01AB5BBC4F4C
:102920008C9190911A01982341F02E2D4F2D672FF5
:10293000CF0179830E944F1F7981D394EACF81E040
:102940000033E8F13BC084E69BE11AC08CE39BE1D5
:1029500017C086E29CE11FC082E19CE11CC08DEFA4
:102960009BE11EC088EE9BE11BC089E39BE108C090
:102970008EE29BE105C083E29BE102C08BE09BE11C
:102980000E9451271CC08FEF9AE10AC086E090E2B6
:1029900002C082ED9BE10E94E32611C080EC9BE126
:1029A0000E9452260CC08EEC9AE105C08DE99AE196
:1029B00002C08EE59AE10E94DC2501C080E0909182
:1029C00019019F5F90931901811126C082E08093C5
:1029D0000B0180911B0181111FC0112341F01CC00C
:1029E00010930A012370209309010E94681C83E060
:1029F00080930B0111C06091A1057091A205809197
:102A0000A3059091A4050E94152D603171058105E3
:102A1000910510F010920B0180917603811125C071
:102A20006091050670910606809107069091080650
:102A30000E947D2E823091F038F4882361F081303D
:102A4000A1F481E090E00FC0833059F0843069F444
:102A500084E090E008C080E090E005C082E090E073
:102A600002C083E090E00E941D0E872D0F90DF9141
:102A7000CF911F910F91FF90EF90DF90CF90BF907B
:102A8000AF909F908F907F900895E8EDF0E0808167
:102A90008E7F80831092E2001092DA001092E100A3
:102AA000A0EEB0E08C9181608C9380818F778083E1
:102AB00019BCA7EDB0E08C918E7F8C9380818F7EC6
:102AC00080831092C90308951F920F920FB60F9240
:102AD00011242F933F934F935F936F937F938F9323
:102AE0009F93AF93BF93CF93DF93EF93FF93C091E7
:102AF000E900CF708091EC00D82FD17080FDD0E834
:102B00001092E9008091F000877F8093F000789424
:102B10000E9402281092E9008091F0008860809362
:102B2000F000CD2BCF70C093E900FF91EF91DF91C2
:102B3000CF91BF91AF919F918F917F916F915F9155
:102B40004F913F912F910F900FBE0F901F901895AE
:102B50002091E4003091E50095E64091EC00842F4F
:102B6000817040FF22C08091E80080FD1CC08091F0
:102B70008305882391F0853091F08091EB0085FDED
:102B800010C04091E4005091E5004217530729F32B
:102B90009A01915011F784E0089582E0089583E04E
:102BA000089581E0089580E008954091E80042FF93
:102BB000DECF08958091850587FF11C08091E800E0
:102BC00082FD05C0809183058111F8CF11C08091ED
:102BD000E8008B770BC080918305882349F08091B2
:102BE000E80080FFF8CF8091E8008E778093E800BE
:102BF0000895982F973058F59093E900981739F079
:102C00007091EC002091ED005091F00003C0242F52
:102C1000762F50E021FF19C03091EB003E7F3093BA
:102C2000EB003091ED003D7F3093ED003091EB00F3
:102C300031603093EB007093EC002093ED005093E3
:102C4000F0002091EE0027FF07C09F5FD3CF8F7069
:102C50008093E90081E0089580E00895CF92DF92AB
:102C6000EF92FF920F931F93CF93DF93C8EDD0E0C5
:102C700088818F7E8883E7EDF0E0808181608083AA
:102C800084E082BF81E08093C90388818E7F88833E
:102C900002EE10E0F80110821092DA0081EEC82EE8
:102CA000D12CF601108288818F7788838881806893
:102CB000888388818F7D888319BC10928305109248
:102CC0008405109282051092810590EEE92EF12C78
:102CD000F70180818B7F808388818160888342E0D7
:102CE00060E080E00E94F915F60180818E7F80838C
:102CF000F801808181608083808188608083F70112
:102D000080818E7F8083888180618883DF91CF91ED
:102D10001F910F91FF90EF90DF90CF9008951F9239
:102D20000F920FB60F9211242F933F934F935F93FF
:102D30006F937F938F939F93AF93BF93EF93FF9383
:102D40008091E10082FF09C08091E20082FF05C00E
:102D50008091E1008B7F8093E1008091DA0080FF19
:102D60002AC08091D80080FF26C08091DA008E7F33
:102D70008093DA008091D90080FF18C080E189BD7E
:102D800082E189BD09B400FEFDCF81E08093830517
:102D90008091C90381110FC00E9445150E942E1613
:102DA0008091E20084608093E20005C019BC10921B
:102DB00083051092C9038091E10080FF17C08091C4
:102DC000E20080FF13C08091E2008E7F8093E200DA
:102DD0008091E20080618093E2008091D80080625F
:102DE0008093D80019BC85E0809383058091E10031
:102DF00084FF34C08091E20084FF30C080E189BD4F
:102E000082E189BD09B400FEFDCF8091D8008F7D9D
:102E10008093D8008091E1008F7E8093E1008091C3
:102E2000E2008F7E8093E2008091E20081608093D7
:102E3000E20080918405882311F084E007C080912E
:102E4000E30087FD02C081E001C083E08093830539
:102E500010925E050E94AF230E94A61E8091E100A1
:102E600083FF27C08091E20083FF23C08091E100AF
:102E7000877F8093E10082E0809383051092840530
:102E80008091E1008E7F8093E1008091E2008E7F4F
:102E90008093E2008091E20080618093E20042E052
:102EA00060E080E00E94F9158091F00088608093D6
:102EB000F000FF91EF91BF91AF919F918F917F9122
:102EC0006F915F914F913F912F910F900FBE0F9097
:102ED0001F90189520918B0530918C052617370788
:102EE00048F06115710539F42091E8002E772093A0
:102EF000E80001C0B90140E061157105A9F1209118
:102F00008305222309F443C0253009F442C02091EF
:102F1000E80023FD40C02091E80022FD32C020914E
:102F2000E80020FFE9CF4091F3002091F20030E06B
:102F3000342BFC01CF016115710559F028303105A2
:102F400040F481918093F100615071092F5F3F4FF0
:102F5000F1CF41E02830310509F040E02091E80050
:102F60002E772093E800C8CF4111C9CF0AC08091C5
:102F70008305882361F0853061F08091E80083FD4E
:102F80000AC08091E80082FFF2CF80E0089582E0DD
:102F9000089583E0089581E008958091C803811128
:102FA00007C080918305843011F081E0089582E0AC
:102FB0000895CF93DF93CDB7DEB72A970FB6F89475
:102FC000DEBF0FBECDBF84B7877F84BF0FB6F89436
:102FD000A8958091600088618093600010926000E5
:102FE0000FBE80E8809361001092610085B7806811
:102FF00085BF85B7806885BF0E9445150E942E1643
:103000008091E20084608093E2007894809183054F
:103010008823A1F01091E9001F709091EC00892F96
:10302000817090FD80E8182B1092E9008091E800F3
:1030300083FD0E9402281F701093E90082E084BD86
:1030400093E095BD9AEF97BD80936E000E949E110C
:1030500090E090930D0180930C010E9461120E94F8
:103060007012AEE8B3E0E1EAF3E01EE0F12EFE0EEE
:1030700011921D92FE12FCCF8EE090E00E949730DC
:103080008093880390938903FC010E962BEF219384
:10309000E817F907E1F70E94192E811102C00E947A
:1030A000242E0E94D21C0E94192E811104C00E945D
:1030B000242E0E94A31F80E190E00E94293060939B
:1030C000A9057093AA058093AB059093AC058FE793
:1030D0008093AD056C7F71F40E94A31F80E190E0A6
:1030E0000E9429306093A9057093AA058093AB05CF
:1030F0009093AC058CE090E00E94213090E0A0E03D
:10310000B0E080938A0390938B03A0938C03B093D9
:103110008D0389EA8093800089E080938100249860
:103120002C983F988AB18F7C8AB96E98479A8BB158
:1031300080638BB9769A0E9409120E94192E811120
:1031400002C00E94242E82E090E00E9421308093F1
:10315000B90384E090E00E94213090E090939D03B9
:1031600080939C0383E090E00E942130682F70E000
:1031700080E090E00E9476218091A905837011F48F
:1031800010920B018091A9058C7F81608093A90525
:103190006091A9057091AA058091AB059091AC054D
:1031A0000E94511F8EE091E090939F0380939E03B5
:1031B00099249394EE24EA94CC24C394D12C50E126
:1031C000452E62E1562E78E1A72EB12CE0E48E2E3A
:1031D00080918305853009F043C080918305843058
:1031E00009F11092A0030FB6F894A895A092600080
:1031F0000FBE8092600083B7817F846083BF83B7F6
:10320000816083BF7894889583B78E7F83BF0FB624
:10321000F894A89580916000886180936000109276
:1032200060000FBE80918205882391F20E949E115A
:1032300090E090930D0180930C010E9461120E9416
:103240007012E1EAF3E01192FE12FDCF0E947712B4
:10325000E1EAF3E081918111F1C0FE12FBCFB8CF1A
:103260000E947712EAEBF3E0A1EAB3E000E010E09D
:10327000702F6D9121912627B1F180E090E030E030
:10328000782EA901082E02C0559547950A94E2F7B9
:1032900040FF25C089837A83C60102C0880F991F29
:1032A0007A94E2F73C01862F90E08621972121E075
:1032B000892B09F420E02B830E946B2D8160782FED
:1032C0009D838C8349815A816B818D810E94A41DCD
:1032D000F801E654FC4F80816826608219C001968F
:1032E0008630910569F60F5F1F4F0E30110509F00A
:1032F000BFCFEE82EF8218860E946B2D8160782FFF
:103300009A8789874E815F8168858A850E94A41D7E
:103310008091B6039091B7030E94412D9C0190913A
:10332000B503992319F0232B09F47CC08091B103D4
:103330001091B20381110BC0111194C02091B303FD
:10334000211190C02091B40321118CC06BC09F3F0C
:1033500019F09F5F9093B503181624F40E94642C13
:103360008093B1038091B10387FF05C00E94642C54
:1033700081958093B103111624F40E94642C8093EC
:10338000B2038091B20387FF05C00E94642C81952F
:103390008093B2033091B103332301F12091B20342
:1033A0002223E1F045EB3403C0011124892F990F4A
:1033B000990B009719F08093B10302C09092B1036A
:1033C00035EB2303C0011124892F990F990B009726
:1033D00019F08093B20302C09092B2038091B303BC
:1033E000181624F40E94422C8093B3038091B303F7
:1033F00087FF05C00E94422C81958093B303809182
:10340000B403181624F40E94422C8093B4038091D4
:10341000B40387FF05C00E94422C81958093B403BA
:103420000E94772D1091B8030E94A61E181709F468
:10343000CFCE0E94A61E8093B803CACE49BC59BC09
:1034400009B400FEFDCF8091D8008F7D8093D80015
:103450008091E00082608093E0008091E00081FD37
:10346000FCCFB6CE9F3F09F074CF7CCF803391055F
:1034700020F5880F991F880F991FFC01E75DFE4F0B
:1034800052813381808183707181E0E98E9FC00118
:10349000112480519C4FFC01E70FF11DB49760830C
:1034A000FC01E50FF11DB4974083830F911DFC01D2
:1034B000B497208381E08093EF030895FC0130E00E
:1034C000D901AA0FBB1FAB51BD4F9C91905797FDDF
:1034D0009195220F331FD901AA51BD4F2C9130E095
:1034E00020523109D901AA0FBB1F2A0F3B1F4203EB
:1034F000D001439FB00D112448E350E09A01291BED
:10350000310997FD3395C901220F331FA901480FD7
:10351000591F64039001659F300D11242A0F3B1F32
:1035200037FF02C021583F4F220F232F221F330B9A
:103530008091AA05280F20830895E22FF0E0DF0193
:10354000AA0FBB1FAA51BD4F2C9130E02052310968
:10355000220F331F4203D001439FB00D1124EE0F01
:10356000FF1FEB51FD4F408150E040575109440F80
:10357000551F64039001659F300D11242A0F3B1FD6
:1035800037FF02C021583F4F220F232F221F330B3A
:103590003091AA05230FFC01208308950F931F93F8
:1035A000E22FF0E0DF01AA0FBB1FAA51BD4F0C9123
:1035B00010E0005211094003D001419FB00D1124C9
:1035C000EE0FFF1FEB51FD4F408150E04057510976
:1035D00064039001659F300D11242A0F3B1F37FFB4
:1035E00002C021583F4F220F232F221F330B30914F
:1035F000AA05230FFC0120831F910F9108950F93BB
:1036000043E0249F9001112435952795200FFC015C
:1036100020830F910895DC0170E0FB01EE0FFF1F86
:10362000EA51FD4F9081905297FD9195660F771F5B
:10363000FB01EB51FD4F8091AA052081280F241B2F
:10364000920F9C930895DC01E62FF0E0EE0FFF1F30
:10365000EA51FD4F9081941B9C930895DC01E62F65
:10366000F0E0EE0FFF1FEB51FD4F9081941B9C93F8
:103670000895FC0140830895E62FF0E0EE0FFF1F50
:10368000EB51FD4F208134EE239F212D11246091B9
:10369000AC0570E030E0245E3F4F241B310937FF5A
:1036A00003C031952195310943E0220F331F4A951C
:1036B000E1F7AB01421B530B9A0157FF02C020E018
:1036C00030E0FC0122830895E62FF0E0EE0FFF1FAB
:1036D000EB51FD4F208134EE239F212D1124609169
:1036E000AB0570E030E0245E3F4F241B310937FF0B
:1036F00003C031952195310943E0220F331F4A95CC
:10370000E1F7AB01421B530B9A0157FF02C020E0C7
:1037100030E0FC0121830895FC01CB01309721F4B6
:1037200077FF2CC080E808959F01F7FF04C022278F
:1037300033272E1B3F0BBC01621B730B280F391F55
:1037400097FD0DC0CB0145E0880F991F4A95E1F721
:10375000B9010E947D3080E2861B682F09C0C90133
:1037600025E0880F991F2A95E1F70E947D30605A65
:10377000862FF7FF02C081950895089580E008958F
:10378000EF92FF920F93CF937C01CA01C22FC01B0F
:103790000E948C1BC81BF701C083CF910F91FF9033
:1037A000EF9008950F931F93CF93DF931F92CDB7A0
:1037B000DEB78C01CA0129830E948C1B2981820FEC
:1037C000F80180830F90DF91CF911F910F910895A1
:1037D000EF92FF920F93CF937C01201B9091AC0549
:1037E000C22FC90FCA010E948C1BC81BF701C283DC
:1037F000CF910F91FF90EF900895EF92FF920F936A
:10380000CF937C01201B9091AB05C22FC90FCA0139
:103810000E948C1BC81BF701C183CF910F91FF90B1
:10382000EF9008950F931F93CF938C01CA01C0911D
:10383000AC05C21B0E948C1B982F880F980FC91BC8
:10384000F801C283CF911F910F9108950F931F9399
:10385000CF938C01CA01C091AB05C21B0E948C1B87
:10386000982F880F980FC91BF801C183CF911F9122
:103870000F910895EF92FF921F93CF93DF937B01F7
:10388000182F110FC0E0D0E08C2F8C5D80938D0538
:1038900020E030E0F901EC0FFD1FEE0DFF1D8081EF
:1038A000F901E357FA4F81832F5F3F4F20313105F4
:1038B00089F761E170E0812F0E94AF276096C039DF
:1038C000D10511F7DF91CF911F91FF90EF900895EF
:1038D0008091EF03882351F060EF73E084E70E944A
:1038E0003A1C60E874E087E70E943A1C1092EF03EC
:1038F0000895EDE8F5E06083418362E070E0880FB1
:103900000C94AF27CF93DF93C82F4BE06DEF0E944D
:10391000791C40E06AE08C2F0E94791C8FE39CE9BF
:103920000197F1F700C0000040E060E08C2F0E949A
:10393000791C40E061E08C2F0E94791C40E066E039
:103940008C2F0E94791C40E06DEF8C2F0E94791C17
:10395000D0E040E06D2F8C2F0E94791CDF5FD231C8
:10396000C1F740E06D2F8C2F0E94791CDF5FD432AD
:10397000C1F740E06D2F8C2F0E94791CDF5FD43B94
:10398000C1F74BE06DEF8C2F0E94791C41E06AE09B
:103990008C2F0E94791C40E06DEF8C2FDF91CF912E
:1039A0000C94791C7F928F929F92AF92BF92CF928C
:1039B000DF92EF92FF920F931F93CF93DF931092BA
:1039C000B9008CE08093B80084E70E94821C87E7EE
:1039D0000E94821CECE2EE2EE1E0FE2EC12CD12CE6
:1039E000F2E17F2EA8E08A2E912CAA24A394B12C78
:1039F000F7013297608170E0CB0184973196E081C6
:103A0000F0E0B497D7012C9130E024523109D6016F
:103A1000AA0FBB1FAA0FBB1FA75DBE4FCC91C370DF
:103A2000D0E0AC0197FF02C0495F5F4F63E055955E
:103A300047956A95E1F77C9E80017D9E100D1124CB
:103A4000040F111D06531C4FB4010E947D30A501C7
:103A500002C0440F551F8A95E2F7CA01D8019C9114
:103A6000892B8C93CF01F7FD079653E095958795A9
:103A70005A95E1F77C9E80017D9E100D1124080F60
:103A8000111D06531C4FCF01B4010E947D30F5017A
:103A900002C0EE0FFF1F8A95E2F7CF01D8019C917B
:103AA000892B8C93C90137FD079643E0959587953F
:103AB0004A95E1F77C9EF0017D9EF00D1124E80F00
:103AC000F11DE653FC4FC901B4010E947D30950100
:103AD00002C0220F331F8A95E2F7C9019081892B1A
:103AE00080833FEFC31AD30A44E0E40EF11C50E395
:103AF000C516D10409F07CCF81E08093EE030AEC77
:103B000013E0C0E0D0E0D8014D918D016C2F84E727
:103B10000E94791CFE01E653FC4F42896C2F87E717
:103B20000E94791C2196C231D10569F7DF91CF91AE
:103B30001F910F91FF90EF90DF90CF90BF90AF90CB
:103B40009F908F907F900895EF92FF920F931F9315
:103B5000CF93DF93CDB7DEB767970FB6F894DEBF8C
:103B60000FBECDBF4B8B5C8B6D8B7E8B8F8B0E898D
:103B70001F8901151105C1F15F3F11F44F3FA1F1FC
:103B8000E42EF12CA1E0B0E0042E01C0AA0F0A94AB
:103B9000EAF7852F90E0662319F02091250506C0ED
:103BA0009C012A5E3A4FF90120812A232223A9F0A1
:103BB00046E0489F9001499F300D1124F701E20F24
:103BC000F31FEE0FFF1FE751FE4F40815181FC01B3
:103BD000EA5EFA4F9081A92B06C0FC01EA5EFA4F1B
:103BE000A0958081A823A08386E0FE013D96DF0199
:103BF000982F1D929A95E9F74D875E876F87198BED
:103C0000088BDE01179601900D928A95E1F7CE019F
:103C100007960E94E521811137C086E0FE013796A4
:103C2000DE01119601900D928A95E1F7FF81E885FA
:103C30006A857B856115710539F1EF3F11F4FF3F0E
:103C400019F120912C0530E0C90101968770992760
:103C500040915D0550E08417950779F1F983EA8377
:103C60007D836C8396E0929FD001939FB00D1124C9
:103C7000A35DBA4FFE01319601900D929A95E1F73E
:103C800080932C050E94802116E080915D05909123
:103C90002C05891711F1189FC0011124835D9A4FDB
:103CA0000E94E5218823C9F080915D0590E001968E
:103CB0008770992780935D05E8CF10925E050E947A
:103CC000AF2310922C0510925D05E6E2F5E086E048
:103CD000DF011D928A95E9F7D7CF67960FB6F89462
:103CE000DEBF0FBECDBFDF91CF911F910F91FF902F
:103CF000EF900895209114053091150582179307D0
:103D000071F09093150580931405E0919E03F09156
:103D10009F03309721F00084F185E02D09940895E8
:103D200020911205309113058217930771F090933B
:103D3000130580931205E0919E03F0919F03309745
:103D400021F00680F781E02D09940895E0919E030B
:103D5000F0919F03309721F00190F081E02D0994BC
:103D600080E008950F931F93CF93DF93C62FD42F36
:103D7000022FFC0182818823C9F060937C030E949A
:103D80006B2D909311058093100580E28C0F883085
:103D900008F050C0C77081E001C0880FCA95EAF7EB
:103DA000DF91CF911F910F910C94CD2310917C0343
:103DB000161330C080911005909111050E94412D7D
:103DC000883C910538F5C0E2CD0F1D17B9F080E2AF
:103DD000810F883040F4177081E001C0880F1A9578
:103DE000EAF70E94C223C83048F481E09D2F977003
:103DF00001C0880F9A95EAF70E94CD23802F0E9478
:103E00005825C830B8F4D77081E001C0880FDA9522
:103E1000EAF70AC080E28C0F883060F4C77081E056
:103E200001C0880FCA95EAF7DF91CF911F910F91DA
:103E30000C94C223DF91CF911F910F910895CF93DE
:103E4000DF938091780390917903892B29F18091F8
:103E50007A0390917B030E94412D209107013091BC
:103E600008012817390760F4C0917803D0917903CD
:103E7000D260CE010E948811CE010E94721104C04E
:103E8000809178030E94582510927B0310927A0348
:103E90001092790310927803DF91CF9108950C94DA
:103EA000361AAB01BC0180E190E00C944730E9EA9E
:103EB000F5E0880F880F90819370892B8083109292
:103EC0000B0160817181828193810C94511F9091CB
:103ED000A905892F86958695815C8F7393708823B9
:103EE00021F0880F880F892B02C0892F806580936D
:103EF000A90510920B016091A9057091AA05809106
:103F0000AB059091AC050C94511F9091A905892F98
:103F1000869586958F5F8F739370853120F4880F17
:103F2000880F892B02C0892F84608093A905109285
:103F30000B016091A9057091AA058091AB05909144
:103F4000AC050C94511FE9EAF5E08DE28083118203
:103F50008FEF828383838FE7848360817181828185
:103F600093810C94511F482F982F46FD9095E92F6F
:103F7000EF739F7046FD9F5FE295EF70EE0FF0E0EC
:103F8000EF5DFE4F2181299F802D212D11248295E7
:103F90008F702295207F822B3081982F930F892F4D
:103FA00047FD819580580895BC018230910508F441
:103FB0000895613E8EE1780748F49B0195E03695BF
:103FC00027959A95E1F748E0420F01C04FEF91E045
:103FD000242F30E0290F311D35952795229FF001C0
:103FE000239FF00DF00D11246E177F0718F44FEF8B
:103FF000420F05C02F3F310539F091E0920F49176C
:1040000038F78FEF890F08958FEF08950F931F935F
:10401000CF938C01C22F67FD6195E8E3F0E0CF01FB
:10402000861B910967FD9395889F9001899F300DAC
:10403000300D1124449FC001459F900D900D112417
:10404000820F931F0E94D41F982F880F980F9C0FE8
:10405000F8019083CF911F910F91089520E030E0F7
:10406000A901869F412D969F400D511D1124CA0123
:104070000895CF92DF92EF92FF920F931F93CF9309
:10408000DF937B01282F382FE82FF0E0F11006C0D6
:10409000E05EF64F6491762F862F7BC00F2D10E0E7
:1040A00046E0649FC0011124CFEFD0E0BE010E9422
:1040B0006930AB016BEA6403C001659F900D112468
:1040C0008E0D911D8E0D911D982F990F890FBE0198
:1040D000601B710B6E9FD0016F9FB00D7E9FB00D66
:1040E00011249B2F8F9DB0011124672F77277E010C
:1040F000E61AF70AEE9EB001EF9E700DFE9E700D5F
:1041000011246E01C81AD108C09E7001C19EF00C26
:10411000D09EF00C11240F2D1127C01BD10BCE9F68
:104120008001CF9F100DDE9F100D1124812F423092
:10413000510591F04CF441155105E1F04130510524
:10414000B9F4822F272F16C04430510569F044F08E
:104150004630510579F00CC0822F2B2F912F0AC0C9
:104160002B2F932F872F06C08B2F922F212F02C02A
:104170008B2F972FE22FF0E0E05EF64F7491E82F3F
:10418000F0E0E05EF64F6491E92FF0E0E05EF64F7C
:104190008491DF91CF911F910F91FF90EF90DF906D
:1041A000CF90089560918A038CE090E00C943530B4
:1041B00090919C0392FF0DC0282F2871283019F48C
:1041C000877F846006C0282F2471243011F48B7FF0
:1041D000886093FF0DC0282F2871283119F4877E3D
:1041E000846106C0282F2471243111F48B7E8861EC
:1041F00094FD877E08950E945A2F292F2F70929543
:104200009F70E92FF0E03297EE30F105B8F4EB55EE
:10421000FF4F0C949130803F99F018F4803E70F479
:104220000FC0843F59F40CC0803E50F0813F31F400
:1042300007C0822F869586958695089580E008951B
:1042400081E0089510920B0610920A060E94D32E68
:10425000EFEAF3E086E0DF011D928A95E9F710921C
:10426000B503109215060E94772D80E090E00E9421
:10427000901E80E090E00C947A1ECF92DF92EF9235
:10428000FF926B017C010E947D2E56985E982598C6
:104290002D9826982E9827982F9890E0FC0131971A
:1042A000E730F105A8F4ED54FF4F0C949130259AB6
:1042B0002D9A0EC0259A2D9A269A2E9A09C0259AD3
:1042C0002D9A04C0259A2D9A269A2E9A279A2F9ACB
:1042D000C0920506D0920606E0920706F092080604
:1042E000FF90EF90DF90CF900C94222160930D0609
:1042F00070930E0680930F06909310060C94222163
:1043000080915D0590912C05891719F08F5F87705A
:10431000FBCF089580912B0582958F7009F054C0D2
:1043200080912805882309F44FC080915D05A091F4
:104330002C05609126057091270540912905509123
:104340002A05B6E08A1709F43FC090E041155105EF
:10435000C1F17F3F11F46F3FA1F1B89FF001B99F08
:10436000F00D1124E35DFA4F218172132AC02081E0
:10437000621327C02281211124C023813481241794
:10438000350710F421503109241B350B283C310529
:10439000C0F420912B052F70206120932B0526E07F
:1043A000289FF001299FF00D1124EE5CFA4F8081C7
:1043B0008F708061808386E295E00E94F3050C9403
:1043C000802101968770BECF0895BF92CF92DF9271
:1043D000EF92FF920F931F93CF93DF93CDB7DEB78A
:1043E00061970FB6F894DEBF0FBECDBF8C0185E09C
:1043F000F801DE011D9601900D928A95E1F7D80132
:104400003C9111962C9111971296EC90129713965D
:10441000CD90DC90149750912605609127058091EE
:10442000290590912A05009709F44FC16F3F19F4AF
:104430005F3F09F44AC1B0902805BB2009F4ECC0E5
:1044400040912B05C816D90628F0F601E81BF90B98
:10445000CF0104C0809590958C0D9D1DFF24F39491
:10446000883C910548F0F12C407F09F09FC086E21E
:1044700095E00E94F30521C1842F807F09F044C09C
:10448000621312C0531310C0E1100EC04F70406190
:1044900040932B0586E295E00E94F30580912B0561
:1044A000D80115968C932EC0CD2819F12F3F11F409
:1044B0003F3FF9F0FE2CE1101CC080915D0540915A
:1044C0002C0556E0841709F458C090E0589FF0017D
:1044D000599FF00D1124E35DFA4F6181261306C048
:1044E0006081361303C06281611103C00196877039
:1044F000E9CFFE2CEE2009F421C180912B058160CB
:1045000080932B05F12C1AC162130AC0531308C003
:10451000E11006C080912B05D80115968C93B0C090
:104520003D872E878D859E850E94FB208823D1F1B3
:10453000EE20C1F120912B05822F82958F7090E0A3
:10454000029774F0809126059091270598878F83B4
:104550001986DB86CA862C87CE0107960E94F30552
:1045600086E0F801A6E2B5E001900D928A95E1F7A8
:104570000E948A21FF24F394E1C03D872E878D8518
:104580009E850E945A2F292F22952F7030E02230CD
:1045900031050CF0C7C09F7009F0C1C0805E883043
:1045A00008F4CCC0C8010E94F305E4CF621314C024
:1045B000531312C0E11010C080912B05F8018583C0
:1045C000C8010E94F30586E0E6E2F5E0DF011D92F6
:1045D0008A95E9F7FB2CB2C03D872E878D859E8595
:1045E0000E94FB208823F1F2EE20E1F220912B05BE
:1045F000822F82958F7090E002970CF4B1CF80915A
:104600002605909127059A8389831B82DD82CC82BF
:104610002E83CE010196A2CFC816D90638F0C81A4B
:10462000D90AB8ECCB16D10450F007C0809590950C
:104630008C0D9D1D883C910510F0F12C3EC0FE2C88
:10464000EE2009F4AFCF621327C0531325C0209189
:104650002B0520FD18C0822F82958F70482F50E0C7
:104660004115510581F0F80125834F30510541F086
:104670008F5F982F9295907F822F8F70892B8583E3
:10468000C8010E94F30586E0F801A6E2B5E00190BA
:104690000D928A95E1F752C03D872E878D859E85C4
:1046A0000E94FB2081115CCF80912B05816080935B
:1046B0002B05C8010E94F30541C0E6E2F5E086E063
:1046C000DF011D928A95E9F739C0EE2009F46ACF1F
:1046D0003D872E878D859E850E94FB20F82E88239E
:1046E00009F460CF86E0F801A6E2B5E001900D92F2
:1046F0008A95E1F780912605909127050E945A2F0F
:1047000092959F70963041F48091250591E089271C
:1047100080932505909324050E948A210FC0811162
:104720003DCF0CC0243031050CF03CCF9F7009F414
:1047300035CFF8019581907F09F030CF8F2D6196AC
:104740000FB6F894DEBF0FBECDBFDF91CF911F91A2
:104750000F91FF90EF90DF90CF90BF9008958091E0
:104760001801882331F080919C0387FF02C08EE1FD
:1047700001C086E0E0EBF5E0DF011D928A95E9F7E4
:104780000C942221882341F0809590915E05892325
:1047900080935E050C94D32E0895882339F0909170
:1047A0005E05892B80935E050C94D32E0895882393
:1047B00009F463C0823869F40E94A61E81FF5DC0BF
:1047C00069E38EEA95E00E94E12D0E94D32E69E311
:1047D0000EC0833891F40E94A61E80FF4EC063E590
:1047E0008EEA95E00E94E12D0E94D32E63E58EEAC9
:1047F00095E00E94B62D0C94D32E843869F40E9463
:10480000A61E82FF3AC067E48EEA95E00E94E12D81
:104810000E94D32E67E4EBCF9CEF980F913A10F4EF
:10482000682FE5CF90E2980F983088F4877021E0E8
:1048300030E0A90102C0440F551F8A95E2F7CA0172
:10484000809590915E05892380935E05D4CF9BE58A
:10485000980F933020F480E090E00C94901E98E53F
:10486000980F973120F480E090E00C947A1E803FFE
:1048700020F00E94BD2B0C94772D0895882309F415
:1048800016C18238B1F40E94A61E81FD10C169E3F1
:104890008EEA95E00E94E12D0E94D32E2FEF41EE8B
:1048A00054E0215040405040E1F700C0000069E36F
:1048B00017C08338D9F40E94A61E80FDF8C063E5B6
:1048C0008EEA95E00E94E12D0E94D32E8FEF91EEAB
:1048D00024E0815090402040E1F700C0000063E5F3
:1048E0008EEA95E00E94B62D0C94D32E8438B1F454
:1048F0000E94A61E82FDDBC067E48EEA95E00E945E
:10490000E12D0E94D32E4FEF51EE84E041505040F4
:104910008040E1F700C0000067E4E2CF9CEF980F11
:10492000913A30F4682F8EEA95E00E94E12DDCCFB9
:1049300090E2980F983080F4877021E030E0A90170
:1049400002C0440F551F8A95E2F7CA0190915E0597
:10495000892B80935E05C8CF9BE5980F933070F448
:10496000853A29F0863A31F083E890E005C081E885
:1049700090E002C082E890E00C94901E98E5980FB9
:10498000973108F08EC0883A09F445C0893A09F495
:1049900045C08A3A09F445C08B3A09F445C08C3ABF
:1049A00009F445C08B3B09F445C08C3B09F445C074
:1049B0008D3A09F445C0803B09F445C08E3A09F4AC
:1049C00045C08F3A09F445C0813B09F445C0823B9C
:1049D00009F445C0833B09F445C0843B09F445C054
:1049E000853B09F445C0863B09F445C0873B09F483
:1049F00045C0883B09F445C0893B09F445C08D3B5F
:104A000009F445C08E3B09F445C08A3B09F445C012
:104A100080E090E044C082EE90E041C089EE90E0FA
:104A20003EC08AEE90E03BC085EB90E038C086EB5C
:104A300090E035C083EB90E032C084EB90E02FC073
:104A400087EB90E02CC08CEC90E029C08DEC90E0DE
:104A500026C083E891E023C08AE891E020C082E983
:104A600091E01DC084E991E01AC081E292E017C094
:104A700083E292E014C084E292E011C085E292E009
:104A80000EC086E292E00BC087E292E008C08FE69B
:104A900090E005C080E790E002C08AE292E00C94CA
:104AA0007A1E803F20F00E94872C0C94772D089569
:104AB000CF93C82F0E943E24C93349F42FEF83ECD3
:104AC00099E0215080409040E1F700C000008C2F19
:104AD000CF910C94D723CF93DF938093BB0084E8CE
:104AE0008093BC000E946B2DEC019091BC0097FD5F
:104AF0000AC00E946B2D8C1B9D0B84369105A8F378
:104B00008EEF9FEF0CC02091B900287F81E090E0EC
:104B1000283211F480E090E0919581959109DF9120
:104B2000CF9108950F931F93CF93DF93C82F1092C7
:104B3000BC0084EA8093BC000E946B2D8C01909194
:104B4000BC0097FD0AC00E946B2D801B910B843620
:104B50009105A8F38EEF9FEF2AC09091B900987F3E
:104B6000983041F09091B900987F903119F08FEF13
:104B70009FEF1DC0C093BB0084E88093BC000E94DF
:104B80006B2DEC019091BC0097FD08C00E946B2D2D
:104B90008C1B9D0B84369105A8F3DCCF8091B90066
:104BA000887F883111F0803411F780E090E0DF9148
:104BB000CF911F910F9108959F92AF92BF92CF9284
:104BC000DF92EF92FF920F931F93CF93DF9300D06A
:104BD00000D0CDB7DEB76C0110911901110F812FF4
:104BE000880F880F180F3AE0310F313308F030E3A7
:104BF0008091AA0589838091AB058A838091AC0559
:104C00008B836091AD05669566958091A105909125
:104C1000A2053C830E942E20F82E80E48F0D0E9476
:104C2000B31F90E8E92EE80E8F2D0E94B31F20E8F5
:104C3000922E980E3C81131708F5A12EB12CF50188
:104C4000EB5BFC4F808190911A019823A9F00F2D06
:104C5000212F492D6E2DCE0101963C83F601099539
:104C600069817A818B810E943920462F282F672FF6
:104C7000C5010E944F1F3C811F5FDDCF81E03033B3
:104C800008F080E00F900F900F900F90DF91CF9180
:104C90001F910F91FF90EF90DF90CF90BF90AF905A
:104CA0009F9008957F928F929F92AF92BF92CF92E2
:104CB000DF92EF92FF920F931F93CF93DF9300D079
:104CC00000D0CDB7DEB75C0110911901110F812F13
:104CD000880F880F180F3AE0310F313308F030E3B6
:104CE0008091AA0589838091AB058A838091AC0568
:104CF0008B836091AD0566958091A1059091A20589
:104D00003C830E942E20782E3C81131708F045C06A
:104D1000812E912CF401EB5BFC4F908180911A0164
:104D20008923C9F1F401EE0FFF1FEB51FD4FE08025
:104D3000F12C80E7E81AF108F401EE0FFF1FEA51A9
:104D4000FD4FC080D12CE0E2CE1AD108EE9CA0012C
:104D5000EF9C500D500D1124CC9CC001CD9C900DAA
:104D6000900D1124840F951F3C830E94D41F072DA2
:104D7000282FA601B701CE010196F5010995698199
:104D80007A818B810E943920462F282F672FC401FA
:104D90000E944F1F3C811F5FB8CF81E0303308F085
:104DA00080E00F900F900F900F90DF91CF911F91A7
:104DB0000F91FF90EF90DF90CF90BF90AF909F90BA
:104DC0008F907F900895BF92CF92DF92EF92FF92E3
:104DD0000F931F93CF93DF9300D01F92CDB7DEB711
:104DE0006C0110911901110F812F880F880F180F76
:104DF0000AE0010F013308F000E38091AA058983DE
:104E00008091AB058A838091AC058B836091AD0561
:104E100066958091A1059091A2050E942E20B82E42
:104E2000101770F5E12EF12CF701EB5BFC4F908130
:104E300080911A01892311F1F701EE0FFF1FEA514A
:104E4000FD4F408150E040525109F701EE0FFF1F26
:104E5000EB51FD4F608170E0605771092B2DCE0141
:104E60000196F601099569817A818B810E9439202A
:104E7000462F282F672FC7010E944F1F1F5FD0CFDB
:104E800081E0003308F080E00F900F900F90DF91E9
:104E9000CF911F910F91FF90EF90DF90CF90BF9037
:104EA0000895BF92CF92DF92EF92FF920F931F93DC
:104EB000CF93DF9300D01F92CDB7DEB77C01109166
:104EC0001901110F812F880F880F180F0AE0010FA9
:104ED000013308F000E38091AA0589838091AB0536
:104EE0008A838091AC058B836091AD05669566954C
:104EF0008091A1059091A2050E942E20B82E101736
:104F0000E8F4C12ED12CF601EB5BFC4F808190912F
:104F10001A01982389F04B2D612FCE010196F701DC
:104F2000099569817A818B810E943920462F282F2B
:104F3000672FC6010E944F1F1F5FE1CF81E0003342
:104F400008F080E00F900F900F90DF91CF911F91AC
:104F50000F91FF90EF90DF90CF90BF9008950F9347
:104F60001F93CF93DF938B010E949225CDE8D5E06C
:104F700003571A4FC017D10741F424E92093BC000E
:104F8000DF91CF911F910F91089597FDF6CF8991F1
:104F90000E946B25EFCFCF92DF92FF920F931F936A
:104FA000CF93DF931F92CDB7DEB7F82E8B01998395
:104FB0000E94A815998181111CC0CF2CD92E0115F2
:104FC0001105B1F08091E80085FD0AC08091E800EC
:104FD0008E778093E8000E94A815882381F309C08A
:104FE000F60181916F018093F10001501109E7CF23
:104FF00080E00F90DF91CF911F910F91FF90DF9094
:10500000CF9008951F93CF93DF93CDB7DEB7AA97C4
:105010000FB6F894DEBF0FBECDBFE5E8F5E088E03F
:105020008E0F9091F10091938E13FBCF80918605A6
:10503000833009F460C030F4813071F0823009F4BB
:105040009CC0B3C08A3009F488C08B3009F46BC0AF
:10505000893009F0AAC020C080918505813A09F005
:10506000A4C08091E800877F8093E8008091890543
:1050700090918A05892B21F460E281E695E003C0D6
:1050800060E080E090E070E00E946A178091E800A4
:105090008B778093E80089C080918505813209F083
:1050A00084C08091890590918A05029708F07DC09F
:1050B0008091E800877F8093E8008091E80082FD7E
:1050C00005C0809183058111F8CF6FC02091F30056
:1050D0008091F20090E0922B029729F48091F100E8
:1050E0008B7F813021F48091F10080936005809165
:1050F000E8008B7756C080918505813A09F055C04C
:105100008091890590918A05892B09F04EC0809184
:10511000E800877F8093E8008091E80080FFFCCF63
:105120008091180139C0809185058132F1F5809117
:10513000890590918A05892BC1F58091E800877FC8
:105140008093E8000E94DA1580918705809318010A
:1051500010925E050E94AF2328C0809185058132A0
:1051600021F58091E800877F8093E8000E94DA159E
:105170008091880580935F0518C080918505813AEC
:10518000A1F48091E800877F8093E8008091E80097
:1051900080FFFCCF80915F058093F1008091E80053
:1051A0008E778093E8000E94DA158091E80083FFF3
:1051B000D6C18091850590918605492F50E04A30EF
:1051C000510508F0CCC1FA01E654FF4F0C94913020
:1051D000803821F0823809F0C2C108C08091810571
:1051E00090918205992389F082600FC08091890592
:1051F0008F70873008F0B3C18093E9008091EB0095
:1052000085FB882780F91092E9009091E800977F4C
:105210009093E8008093F1001092F10074C1282F60
:105220002D7F09F09CC1882319F0823061F097C16D
:1052300080918705813009F092C1933009F080E0B8
:10524000809382052EC08091870581112AC08091AC
:1052500089058F702FEF280F263008F080C18093CA
:10526000E9002091EB0020FF1CC0933021F48091D5
:10527000EB00806214C09091EB0090619093EB0082
:1052800021E030E0A90102C0440F551F8A95E2F7E2
:105290004093EA001092EA008091EB0088608093CE
:1052A000EB001092E9008091E800877F2FC1811107
:1052B00056C1109187051F778091E3008078812B7C
:1052C0008093E3008091E800877F8093E8000E944C
:1052D000DA158091E80080FFFCCF8091E3008068C0
:1052E0008093E300111102C082E001C083E080934B
:1052F000830535C18058823008F031C1809187051F
:10530000909188058C3D53E0950779F583E08A8379
:105310008AE289834FB7F894DE01139620E03EE0DD
:1053200051E2E32FF0E050935700E49120FF03C0D7
:10533000E295EF703F5FEF708E2F90E0EA3010F053
:10534000C79601C0C0968D939D932F5F243149F776
:105350004FBF8091E800877F8093E8006AE270E0A9
:10536000CE0101960E946A17BDC0409189055091F7
:105370008A05292F332723303105B9F06CF4213009
:10538000310509F4FBC02230310509F0E8C08BE398
:1053900090E0E0E2FBE054C02132310509F433C073
:1053A0002232310509F43CC0DAC0992781309105D9
:1053B000D1F05CF4892B09F0D2C0E3EAFBE0E49180
:1053C0008E2F90E0E3EAFBE038C08230910599F03F
:1053D000039709F0C4C0EDE6FBE0E4918E2F90E066
:1053E000EDE6FBE02AC0EBE8FBE0E4918E2F90E0D5
:1053F000EBE8FBE022C0E3E7FBE0E4918E2F90E0D6
:10540000E3E7FBE01AC04115510509F4BCC0413087
:10541000510509F0A4C089E090E0EBE4FBE010C086
:105420004115510509F4B4C04130510509F097C048
:1054300080EC90E0E0E2FAE003C0009709F48FC04E
:105440002091E800277F2093E80020918B05309180
:105450008C052817390708F4C90140E0009789F145
:1054600020918305222309F43DC02530D9F12091F4
:10547000E80023FD37C02091E80022FD2FC02091D5
:10548000E80020FFEBCF4091F3002091F20030E0E4
:10549000342B009759F02830310540F44491409363
:1054A000F100319601972F5F3F4FF3CF41E0283055
:1054B000310509F040E02091E8002E772093E800C4
:1054C000CDCF4111CDCF0AC080918305882351F003
:1054D000853041F08091E80083FD04C08091E800B0
:1054E00082FFF2CF8091E8008B778093E80037C08D
:1054F0008038A9F58091E800877F8093E80080914B
:1055000084058093F1008091E8008E778093E80015
:105510000E94DA1524C0811122C010918705123033
:10552000F0F48091E800877F8093E8001093840571
:105530000E94DA15111106C08091E30087FD02C0B8
:1055400081E001C084E08093830542E061EC81E06A
:105550000E94F91542E261EC82E00E94F915809107
:10556000E80083FF1AC08091E800877F8093E800FD
:105570008091EB0080628093EB000FC082E190E0AD
:10558000EBE5FBE05DCF89E090E0E2E3FBE058CFA4
:1055900080E490E0E0EEFAE053CFAA960FB6F894DC
:1055A000DEBF0FBECDBFDF91CF911F9108958091D7
:1055B00060050895CF93DF9300D01F92CDB7DEB77B
:1055C00020918305243031F523E029838058910907
:1055D0009B838A8382E08093E9008FEF9091E800BB
:1055E000815095FD06C095ED9A95F1F70000811167
:1055F000F5CF8091E80085FF0DC040E050E063E00A
:1056000070E0CE0101960E94CB278091E8008E7752
:105610008093E8000F900F900F90DF91CF91089545
:105620000F931F93CF93DF9300D01F92CDB7DEB7B8
:105630008C010E94CD17823011F0843021F584E076
:1056400089831B830A8382E08093E9008FEF909126
:10565000E800815095FD06C095ED9A95F1F70000A0
:105660008111F5CF8091E80085FF0DC040E050E04A
:1056700063E070E0CE0101960E94CB278091E800A4
:105680008E778093E8000F900F900F90DF91CF916D
:105690001F910F910895CF93DF93EC010E94CD17D6
:1056A000823011F08430F9F482E08093E9009FEFBA
:1056B0008091E800915085FD06C085ED8A95F1F74F
:1056C00000009111F5CF8091E80085FF0CC040E00B
:1056D00050E066E070E0CE010E94CB278091E800A8
:1056E0008E778093E800DF91CF910895CF93DF9379
:1056F000EC010E94CD17823011F08430D9F58091F1
:105700001801882339F080919C0387FF03C060E271
:1057100082E002C068E081E08093E9008FEF909121
:10572000E800815095FD06C095ED9A95F1F70000CF
:105730008111F5CF8091E80085FF1CC08091180190
:10574000811105C040E050E068E070E003C070E007
:1057500040E050E0CE010E94CB278091E8008E7798
:105760008093E80080E2FE01A1E6B5E001900D9291
:105770008A95E1F7DF91CF910895803F39F48091C8
:10578000B20387FF6CC01092B20369C0813F29F455
:105790008091B2031816BCF362C09091B103823FAE
:1057A00029F497FF5CC01092B10359C0833F19F4EC
:1057B0001916CCF354C0893F41F48091B3031816F5
:1057C0000CF04DC01092B3034AC08A3F29F4809177
:1057D000B30387FF44C0F6CF8B3F39F48091B40305
:1057E00087FF3DC01092B4033AC08C3F29F48091EA
:1057F000B4031816BCF333C0843F21F48091B00386
:105800008E7F17C0853F21F48091B0038D7F11C03A
:10581000863F21F48091B0038B7F0BC0873F21F43A
:105820008091B003877F05C0883F31F48091B00339
:105830008F7E8093B00313C08D3F21F480911506B5
:105840008E7F0BC08E3F21F4809115068D7F05C0A1
:105850008F3F29F4809115068B7F809315068091E8
:10586000B10381110EC08091B20381110AC08091F1
:10587000B303811106C08091B403811102C010925C
:10588000B50308958091150680FD16C081FD16C0F0
:1058900082FD18C08091B503882391F0883290F47E
:1058A00028E0829FC001112468E270E00E947D30F0
:1058B000862F672B29F007C082E0089584E00895C1
:1058C00081E0089588E008958091150680FD17C055
:1058D00081FD17C082FD19C08091B503882399F01E
:1058E0008C3398F423E2829FC00111246CE370E0B2
:1058F0000E947D30862F672B49F481E0089588E06F
:10590000089581E1089585E0089583E20895803F38
:1059100021F40E94642C819504C0813F29F40E94E7
:10592000642C8093B2030895823F21F40E94642C7A
:10593000819504C0833F29F40E94642C8093B103B5
:105940000895893F19F40E94422C05C08A3F31F422
:105950000E94422C81958093B30308958B3F21F4DC
:105960000E94422C819504C08C3F29F40E94422C55
:105970008093B4030895843F21F48091B003816043
:1059800017C0853F21F48091B003826011C0863F2B
:1059900021F48091B00384600BC0873F21F4809193
:1059A000B003886005C0883F31F48091B003806106
:1059B0008093B00308958D3F21F480911506816096
:1059C0000BC08E3F21F480911506826005C08F3F89
:1059D00029F48091150684608093150608957894C3
:1059E0001F920F920FB60F9211248F939F93AF9334
:1059F000BF938091110690911206A0911306B09169
:105A000014060196A11DB11D8093110690931206F4
:105A1000A0931306B0931406BF91AF919F918F91FD
:105A20000F900FBE0F901F901895CF92DF92EF92BC
:105A3000FF920F931F932FB7F894C0901106D09048
:105A40001206E0901306F09014062FBF970186010E
:105A5000061B170B280B390BC616D706E806F906E6
:105A600018F0C901B80106C0C901B8016150710937
:105A7000810991091F910F91FF90EF90DF90CF90D6
:105A80000895CF92DF92EF92FF920F931F932FB75B
:105A9000F89440911106509112066091130670918E
:105AA00014062FBF6A017B01EE24FF248C0120E045
:105AB00030E0C016D106E206F30610F44150510959
:105AC0009A01281B390BC9011F910F91FF90EF908C
:105AD000DF90CF9008952FB7F894809111069091A0
